:020000001128C5
:100008007E14803120007F08FD005023A9217B2425
:100018007D082000FF007E10090012282F26E0002E
:100028003026E1003126E2003226E300F001F1013A
:10003800F201F301F401F501F601203084000030EB
:1000480085002A301D26A030840000308500143039
:100058001D267E102000232E4934063442340534F0
:1000680049340634493406344934063449340634AC
:10007800493406344934063449340634E7340534FF
:10008800493406344934063449340634493406348C
:1000980049340634493406344934063412340534B4
:1000A800DA340534493406344934063449340634DC
:1000B8004934063449340634493406341234053494
:1000C80049340634CD3405344934063449340634C9
:1000D8004934063449340634493406341234053474
:1000E8004934063449340634C034053449340634B6
:1000F8004934063449340634493406341234053454
:10010800493406344934063449340634B3340534A2
:100118004934063449340634493406341234053433
:1001280049340634493406344934063449340634EB
:10013800A6340534493406344934063412340534B7
:1001480049340634493406344934063449340634CB
:1001580049340634D934043449340634493406342D
:1001680049340634493406344934063449340634AB
:10017800493406344934063448340634473406349E
:1001880016340634463406344634063448340634C5
:100198004634063448340634453406344434063488
:1001A8002934063444340634483406344434063496
:1001B800483406340B340634C3340434C3340434AA
:1001C80099340534C3340434C3340434483406340D
:1001D80043340634C3340434C33404344234063458
:1001E8004134063440340634200024080319FF281B
:1001F800A401023008003808AC2420004A084B0447
:10020800031D0A2938085125013008002000360846
:10021800AC2420004A084B04031D16293608512532
:100228000330080020003408E02320004D084C0467
:100238004B044A04031D24293408612401300800B2
:1002480070080319672920002D0803196729013050
:100258002D3E860087017109D4007209D500D40AA1
:100268000319D50A403F5407D600413F553DD700F2
:100278000230570259300319560203184729F00172
:10028800AD01043008000130703E860087012E0958
:10029800D4002F09D500D40A0319D50A403F5407C2
:1002A800D600413F553DD700023057025930031957
:1002B800560203186329F001AD0104300800F0016B
:1002C800AD010630080020002D08031983292E09E6
:1002D800D4002F09D500D40A0319D50A7308540786
:1002E800D6007408553DD70002305702593003191B
:1002F8005602031CA729F001AD010530080070085B
:1003080003199E297109D4007209D500D40A03196A
:10031800D50A73085407D6007408553DD700023033
:100328005702593003195602031CA729F001AD01E1
:10033800063008002A08031927080319A729AA0163
:10034800A70106300800003008002100111C080031
:100358002000111C08001810320833040319B829AA
:100368000130B2020030B33BFC0176087C0203186E
:10037800E0297C35A03E8600870116000104031998
:10038800DB297C35A03E860087011600FF3AF7007E
:100398001600FF3AF7040319DB297C35A03E8600D6
:1003A80087010130810241310030813B7F310130CA
:1003B800F7007708FC07B929FC0175087C020318C7
:1003C800332A7C08F7000130F735FF3E031DE82982
:1003D8007735203E86008701403FF800413FF9000D
:1003E800423FFA00433FFB007B087A047904780413
:1003F80003192E2A7C08F7000130F735FF3E031D4C
:10040800012A7735203E860087011600FF3AF8005A
:100418001600FF3AF8041600FF3AF8041600FF3AEF
:10042800F80403192E2A7C08F7000130F735FF3E3F
:10043800031D1A2A7735203E860087010130810284
:1004480041310030813B41310030813B4131003046
:10045800813B7D310130F7007708FC07E129013045
:10046800F3070030F43D7D302000970000309600FF
:1004780018141110080020003A08AC2420004A087B
:100488004B04031D4B2A3A0851250130080020006F
:100498002A0803196D2A700803196A2A7109D000FD
:1004A8007209D100D00A0319D10A73085007D20083
:1004B8007408513DD3000030530202300319520230
:1004C800031CD02AF001AA0106300800AA01043052
:1004D8000800270803198E2A2D0803198B2A2E09CC
:1004E800D0002F09D100D00A0319D10A7308500788
:1004F800D2007408513DD300003053020230031972
:100508005202031CD02AAD01A70107300800A70139
:100518000530080070080319AF2A2A080319AC2A05
:100528002B09D0002C09D100D00A0319D10A73086D
:100538005007D2007408513DD300003053020230F6
:1005480003195202031CD02AF001AA010630080040
:10055800F001023008002D080319D02A27080319D2
:10056800CD2A2809D0002909D100D00A0319D10AB7
:1005780073085007D2007408513DD300003053026D
:10058800023003195202031CD02AAD01A70107301B
:100598000800AD010330080000300800200064089E
:1005A800AC2420004A084B04031D08000830490603
:1005B8000319122B3F222000D8005808C800083021
:1005C80048020318472B093049020318472B4808EB
:1005D800D800D901D835D90D4908DA00DB01DA0E7F
:1005E800DB0EF030DB055A080F39DB04F030DA0592
:1005F8003030DC008030DD005A085C07DE005B0824
:100608005D3DDF005E08580784005F08593D85009E
:10061800013F8A00003F0A008331482BF820200060
:10062800D8005808C600073046020318472B043084
:1006380047020318472B4608D800D901D835D90DE9
:100648004708DA00DB015A08CA005B08CB000E3005
:10065800CC000030CD002A24C0302000DC008030DF
:10066800DD004A085C07DE004B085D3DDF005E08E0
:10067800580784005F08593D8500013F8A00003F04
:100688000A008331482B12250A302000CA000030A6
:10069800CB006408602508000B1C08002700931D88
:1006A8005E2B0230F7000030F800200036088B255A
:1006B80027009311131D722B20000C196A2BF001CF
:1006C800F00A7408F2007308F100702BAD01AD0A4E
:1006D8007408AF007308AE0027001311131E08003A
:1006E80020000C1A7E2BAA01AA0A7408AC00730811
:1006F800AB00842BA701A70A7408A9007308A800F7
:100708002700131208007D252000CE004E08E400C3
:100718000A30CA000030CB006408602500267D2519
:100728002000CE00CF014E08B6004F08B7007D2547
:100738002000CE00CF014E08BA004F08BB007D252F
:100748002000CE00CF014E08B8004F08B9006F2531
:100758002000CE00CF014E08B4004F08B500122586
:10076800080020003D08031908003F08AC242000B9
:100778004A084B04031D08003E080319C62BBE0196
:10078800BC01CA2BBE01BE0ABC01BC0A300A03194F
:10079800310A0319D92BFF30B007FF30B13D3008BB
:1007A8003104031DD92BBD01BC016108CB006008D1
:1007B800CA003F08602508002000D300FF30D2009F
:1007C800FF30D100FF30D000FF30CF007508530252
:1007D8000318012C5308CE000130CE35FF3E031D0F
:1007E800F12B4E35203E86008701403FCF00413F28
:1007F800D000423FD100433FD2005208CD005108FB
:10080800CC005008CB004F08CA000800FC3021007B
:100818009905190887397038990099178C128C1026
:1008280023008C1022008C1021008C150C10230042
:100838000C1022000C1421000C1623000C122100AD
:100848000C1523000C112100171408002000CE01FC
:10085800CF014A1C332C4C08CE074D08CF3D013040
:10086800CC35CD0D890B342C0130CB36CA0C890B15
:10087800392C4A084B04031D2D2C4F08CB004E0879
:10088800CA00080020004008031908004208AC24E8
:1008980020004A084B04031D080041080319572C7F
:1008A800C1018C165A2CC101C10A8C126308CB00F5
:1008B8006208CA004208602508002000CB007508BD
:1008C8004B02031808004B08CA000130CA35FF3E26
:1008D800031D6A2C4A35203E86008701FF30C03F41
:1008E800FF30C13FFF30C23FFF30C33F0800210047
:1008F800911C08002000911C08001C113C080319D9
:10090800912C22000C0C0139F7000130F706F70D85
:100918000C087706FD3977068C0020001C1591100D
:1009280008002000BD01BD0A4C0A03194D0A03192D
:10093800A12C4C35B0004D0DA42CFF30B000FF3079
:10094800B100BC014B08E1004A08E000BE01080004
:100958002000CF00FF30CD00FF30CE0076084F02D8
:100968000318BE2C4F35A03E86008701403FCD00BE
:10097800413FCE004E08CB004D08CA0008000130A8
:100988002000CE004E08C5070B304502031C0800A6
:100998006430CA000030CB000130CC000030CD00FC
:1009A80095242000C5011225080020003A08512589
:1009B80008302000CD004D08C900A401A40A74081D
:1009C800A6007308A500D030CA000730CB0038084D
:1009D800602508000A2400258723F42524253B26C2
:1009E8003726C8302000CA000030CB000330CC00C6
:1009F8000030CD0095240800F601F5012000991378
:100A080098131817981218127D3097000030960026
:100A1800210011140B17200018140800D0302000F2
:100A2800CA000730CB003A08602522000C142000C9
:100A3800C901F001AD01AA01A701C70137260800C5
:100A480033252000BC017D252000CD004D08BF00C6
:100A58006108CB006008CA003F0860250800FC3028
:100A680020009C051C08873938389C0065309B009D
:100A7800210091140B1720001C150800B830200025
:100A8800CA000B30CB003A08602522000C10043055
:100A98002000CD004D08C90008002000CA007608D3
:100AA8004A02031808004A35A03E86008701FF3035
:100AB800C03FFF30C13F08002000CC0076084C0240
:100AC800031808004C35A03E860087014A08C03F3D
:100AD8004B08C13F080075082000CC004C08CD0029
:100AE8000130CC004C08F5074D08612420004D0862
:100AF800080076082000CB004B08CC000130CB0062
:100B08004B08F6074C08512520004C080800F9004E
:100B180076087902031808007935A03E8600870117
:100B28007708C03F7808C13F08002000440803192F
:100B3800A12D37262000C401080033262000C40157
:100B4800C40A0800D0302000CA000730CB003A0899
:100B5800602507302000CD004D08C9000800D030BE
:100B68002000CA000730CB003A0860250330200077
:100B7800CD004D08C9000800D0302000CA00073059
:100B8800CB003A08602505302000CD004D08C9008B
:100B98000800D0302000CA000730CB003A08602592
:100BA80006302000CD004D08C9000800D0302000D4
:100BB800CA000730CB003A08602503302000CD007A
:100BC8004D08C9000800D0302000CA000730CB000B
:100BD8003A08602502302000CD004D08C900080001
:100BE8007D252000CD004D08C2006308CB006208B7
:100BF800CA004208602508008B17270092151215B5
:100C08001115121611160B108B150B1708006430EE
:100C18002000CA000030CB000230CC000030CD00EC
:100C2800952408002000380851252000C701C70A6C
:100C38000800640080010131890B1E2E0034EE2467
:100C4800D2224624B5233E26242E02302000CA0094
:100C58004A08C7000800E8340334E83403342000A5
:100C6800C0018C1208002000C0018C1608000B1768
:100C78008B17080064000800080008000800080036
:0C0C880008000800080008000800080030
:020000040001F9
:04000E00BCCFFFDD87
:00000001FF
