:020000001128C5
:100008007E14803120007F08F3000B23FC20A121FF
:1000180073082000FF007E10090012281E23DB0051
:100028001F23DC002023DD002123DE00F601F70179
:10003800F801F90120308400003085002D301223AA
:100048007E102000182B27340334E2340234F934AC
:100058000234F9340234F9340234F9340234F9340C
:100068000234F934023427340334D6340234F934F0
:100078000234F9340234F9340234F9340234F934EC
:100088000234F934023427340334F9340234CA34DC
:100098000234F9340234F9340234F9340234F934CC
:1000A8000234F934023427340334F9340234F9348D
:1000B8000234BE340234F9340234F9340234F934E7
:1000C8000234F934023427340334F9340234F9346D
:1000D8000234F9340234B2340234F9340234F934D3
:1000E8000234F934023427340334F9340234F9344D
:1000F8000234F9340234F9340234A6340234F934BF
:100108000234F934023427340334F9340234F9342C
:100118000234F9340234F9340234F93402349A34AA
:100128000234F934023427340334F9340234F9340C
:100138000234F9340234F9340234F9340234F9342B
:1001480002342634023427340334F9340234273491
:10015800033427340334273403342734033427344F
:1001680003342734033420005F08D22120004D08CF
:100178004E04031D080072222000D3005308CB0050
:1001880008304B020318F32809304C020318F328EF
:100198004B08D300D401D335D40D4C08D500D60173
:1001A800D50ED60EF030D60555080F39D604F030E6
:1001B800D5052730D7008030D80055085707D90013
:1001C8005608583DDA005908530784005A08543D28
:1001D8008500013F8A00003F0A008031F428F92297
:1001E8000A30F4000030F50020005F0855220800AE
:1001F8002100111C08002000111C080018104208DA
:10020800430403190B290130C2020030C33BF20139
:1002180078087202031833297235203E8600870158
:100228001600010403192E297235203E8600870125
:100238001600FF3AF0001600FF3AF00403192E29C1
:100248007235203E8600870101308102413100303D
:10025800813B7F310130F0007008F2070C297D30B6
:100268002000970000309600181411100800200094
:100278004508031908004708D22120004D084E04FC
:10028800031D0800460803194C29C601C40150295A
:10029800C601C60AC401C40A400A0319410A03195F
:1002A8005F29FF30C007FF30C13D40084104031DEE
:1002B8005F29C501C4015C08F5005B08F400470824
:1002C80055220800FC302100990519088739703833
:1002D800990099178C128C1023008C1022008C1016
:1002E80021008C150C1023000C1022000C14210086
:1002F8000C1623000C1221000C1523000C112100F0
:100308001714080020004808031908007908D221AA
:1003180020004D084E04031D0800490803199729B9
:10032800C9018C169A29C901C90A8C125E08F50000
:100338005D08F4007908552208002100911C080086
:100348002000911C08001C1144080319B729220039
:100358000C0C0139F0000130F006F00D0C087006A5
:10036800FD3970068C0020001C1591100800200033
:10037800C501C50A4F0A0319500A0319C7294F3581
:10038800C000500DCA29FF30C000FF30C100C401B1
:100398004E08DC004D08DB00C60108002000D20032
:1003A800FF30D000FF30D100780852020318E4294A
:1003B8005235203E86008701403FD000413FD100A2
:1003C8005108CE005008CD00080066211522FF21F3
:1003D8008E2237222223E830F4000330F500EE2283
:1003E800C8302000CD000030CE000330CF000030F0
:1003F800D000BB21080064222000CE004E08DF0098
:100408000A30F4000030F5005F0855220423642206
:100418002000CE00CF014E08F6004F08F700F92261
:100428000800F80120009913981318179812181249
:100438007D30970000309600210011140B17200022
:1004480018140800760880220830F5007508200086
:10045800CC00F430CD000130CE000530CF000030A4
:10046800D000BB21080046222000C40164222000DD
:10047800CE004E08C7005C08F5005B08F40047088A
:1004880055220800FC3020009C051C0887393838A4
:100498009C0065309B00210091140B1720001C154F
:1004A80008002000CD0078084D02031808004D35DB
:1004B800203E860087017408C03F7508C13F0800C8
:1004C8007808F50075082000CD000130F5007508A2
:1004D800F8074D08802220004D0808007608D22130
:1004E80020004D084E04031D7D2A76088022013025
:1004F800080020004A080800F4007808740203186D
:1005080008007435203E86008701FF30C03FFF3069
:10051800C13F080064222000CE004E08F9005E08A2
:10052800F5005D08F4007908552208006430F400ED
:100538000030F5007608552207302000CE004E081E
:10054800CC0008006430F4000030F500760855222D
:1005580006302000CE004E08CC0008006430F400BD
:100568000030F5007608552205302000CE004E08F0
:10057800CC0008006430F4000030F50076085522FD
:1005880004302000CE004E08CC0008006430F4008F
:100598000030F5007608552203302000CE004E08C2
:1005A800CC0008009830F4003A30F500760855225F
:1005B80008302000CE004E08CC0008006430F4005B
:1005C8000030F5007608552222000C102000CC01DE
:1005D800CC0A08002000C801C80A8C127508DE0081
:1005E8007408DD00C901C90A08006430F40000304D
:1005F800F5007608552222000C142000CC010800D2
:100608008B17270092150B108B150B1708000B1C66
:1006180008002700931D080093110800640080015A
:100628000131890B132B0034E921B72086213B21A6
:100638002523192BE8340334E83403340B178B17BC
:0806480008006400080008002E
:020000040001F9
:04000E00BCCFFFDD87
:00000001FF
