:020000001128C5
:100008007E14803120007F08F30062216720EC20F5
:1000180073082000FF007E1009001228F601F7017E
:10002800F801F90120308400003085002B301022BF
:100038001C22D9001D22DA001E22DB001F22DC0050
:100048007E102000162A20005D08352120004B086C
:100058004C04031D080028222000D1005108C900C3
:100068000230490203185E280330780203185E281C
:100078004908D100D201D135D20D7808D300D40176
:10008800D335D40DD335D40DDF30D5008130D6002B
:1000980053085507D7005408563DD800570851074C
:1000A80084005808523D8500013F8A00003F0A003D
:1000B80080315F28F8016430F4000030F50020003A
:1000C8005D08B42108002100111C08002000111C43
:1000D8000800181040084104031976280130C002AE
:1000E8000030C13BF2017908720203189E2872356C
:1000F800203E8600870116000104031999287235ED
:10010800203E860087011600FF3AF0001600FF3AED
:10011800F004031999287235203E860087010130C2
:10012800810241310030813B7F310130F00070089D
:10013800F20777287D3020009700003096001814C9
:100148001110080020004A08031908007708352113
:1001580020004B084C04031D080045080319B72864
:10016800C501C401BB28C501C50AC401C40A420AA5
:100178000319430A0319CA28FF30C207FF30C33DD9
:1001880042084304031DCA28CA01C4015A08F500DD
:100198005908F4007708B42108002000470803191B
:1001A80008007608352120004B084C04031D080080
:1001B80046080319E228C6018C16E528C601C60AB6
:1001C8008C125C08F5005B08F4007608B42108007E
:1001D8002100911C08002000911C08001C114408F3
:1001E8000319022922000C0C0139F0000130F00635
:1001F800F00D0C087006FD3970068C0020001C15E7
:1002080091100800FC3021009905190887397038C9
:10021800990099178C128C1023008C1022008C10D6
:1002280021008C150C1223000C1222000C12210044
:10023800171408002000CA01CA0A4D0A03194E0AF9
:1002480003192A294D35C2004E0D2D29FF30C20051
:10025800FF30C300C4014C08DA004B08D900C501BF
:1002680008002000D000FF30CE00FF30CF00790812
:100278005002031847295035203E86008701403F29
:10028800CE00413FCF004F08CC004E08CB000800FD
:10029800062176218721EB2196212022E830F400DF
:1002A8000330F500F7212C302000CB000130CC00C2
:1002B8000330CD000030CE001E2108000B1C0800C2
:1002C8002700931D080022000C0E0139F0000130B0
:1002D800F006F00E0C087006EF3970068C00270047
:1002E80093110800F9012000991398131817981210
:1002F80018127D30970000309600210011140B175A
:10030800200018140800C3212000CC004C08DD0090
:100318006430F4000030F5005D08B4210922003093
:1003280002220800A5212000C401C3212000CC001E
:100338004C08F7005A08F5005908F4007708B4216A
:100348000800FC3020009C051C08873938389C00C0
:1003580065309B00210091140B1720001C15080024
:100368002000CB0079084B02031808004B35203ECB
:10037800860087017408C03F7508C13F08007908E6
:10038800F50075082000CB000130F5007508F90765
:100398004B08D12120004B080800F40079087402AA
:1003A800031808007435203E86008701FF30C03FDF
:1003B800FF30C13F0800233402342D3402342C347A
:1003C80002342B3402342A3402342E340234C3214A
:1003D8002000CC004C08F6005C08F5005B08F4002F
:1003E8007608B42108002000C701C70A8C127508D6
:1003F800DC007408DB00C601C60A0800F5007508B1
:10040800F40074082000C80008008B172700921514
:100418000B108B150B170800640080010131890B44
:10042800112A00344C212720D120A6202622172A61
:10043800E8340334E83403340B178B170800F80149
:10044800F80A0800640008000130080008000800E5
:0604580008000800080086
:020000040001F9
:04000E00BCCFFFDD87
:00000001FF
