:020000001128C5
:100008007E14803120007F08FD005223AB21FF249D
:100018007D082000FF007E1009001228B126E000AC
:10002800B226E100B326E200B426E300F001F101B4
:10003800F201F301F401F501F601203084000030EB
:1000480085002A30A526A0308400003085001430B1
:10005800A5267E102000AB2EC2340634C7340534E2
:10006800C2340634C2340634C2340634C2340634C8
:10007800C2340634C2340634C23406346D3406340D
:10008800C2340634C2340634C2340634C2340634A8
:10009800C2340634C2340634C23406344734053414
:1000A80060340634C2340634C2340634C2340634EA
:1000B800C2340634C2340634C234063447340534F4
:1000C800C234063453340634C2340634C2340634D7
:1000D800C2340634C2340634C234063447340534D4
:1000E800C2340634C234063446340634C2340634C4
:1000F800C2340634C2340634C234063447340534B4
:10010800C2340634C2340634C234063439340634B0
:10011800C2340634C2340634C23406344734053493
:10012800C2340634C2340634C2340634C234063407
:100138002C340634C2340634C23406344734053409
:10014800C2340634C2340634C2340634C2340634E7
:10015800C23406345D340534C2340634C23406343D
:10016800C2340634C2340634C2340634C2340634C7
:10017800C2340634C2340634C33406344734053432
:10018800723405344734053447340534C3340634EF
:1001980047340534C334063447340534473405340A
:1001A8009734043447340534C334063447340534AB
:1001B800C3340634473405344734053447340534EA
:1001C8009C34063443340434473405340034003452
:1001D8000034003400340034003400340034003477
:1001E8000034003400340034200024080319FF28A8
:1001F800A401023008003A08302520004A084B04C0
:10020800031D0A293A08D6250130080020003808BD
:10021800302520004A084B04031D1829B401B501F4
:100228003808D6250330080020003608F9232000B6
:100238004D084C044B044A04031D26293608E524BE
:100248000130080020002D080319842970080319BB
:100258006B292D0803196B2901302D3E8600870173
:100268007109D4007209D500D40A0319D50A403F90
:100278005407D600413F553DD70002305702593048
:100288000319560203184B29F00104300800013005
:10029800703E860087012E09D4002F09D500D40AA4
:1002A8000319D50A403F5407D600413F553DD700B2
:1002B8000230570259300319560203186729F00112
:1002C800AD0104300800F001AD01CB240800200086
:1002D8002E09D4002F09D500D40A0319D50A7308AA
:1002E8005407D6007408553DD700023057025930DC
:1002F80003195602031CA929F001AD0105300800B5
:10030800700803199F297109D4007209D500D40A0D
:100318000319D50A73085407D6007408553DD70049
:1003280003305702E93003195602031CA929F001CA
:10033800AD01CB24080020002A0803192708031957
:10034800A929AA01A701CB24080000300800210030
:10035800111C08002000111C080018103208330472
:100368000319BA290130B2020030B33BFC01760808
:100378007C020318E2297C35A03E8600870116001E
:1003880001040319DD297C35A03E8600870116008B
:10039800FF3AF7001600FF3AF7040319DD297C3508
:1003A800A03E860087010130810241310030813B47
:1003B8007F310130F7007708FC07BB29FC0175087D
:1003C8007C020318352A7C08F7000130F735FF3E18
:1003D800031DEA297735203E86008701403FF80053
:1003E800413FF900423FFA00433FFB007B087A0493
:1003F800790478040319302A7C08F7000130F735AE
:10040800FF3E031D032A7735203E8600870116002C
:10041800FF3AF8001600FF3AF8041600FF3AF8040D
:100428001600FF3AF8040319302A7C08F700013057
:10043800F735FF3E031D1C2A7735203E86008701CD
:100448000130810241310030813B41310030813B34
:1004580041310030813B7D310130F7007708FC07DE
:10046800E3290130F3070030F43D7D302000970088
:100478000030960018141110080020003C083025A0
:1004880020004A084B04031D4D2A3C08D62501309C
:10049800080020002A0803196F2A700803196C2A1B
:1004A8007109D0007209D100D00A0319D10A730862
:1004B8005007D2007408513DD30000305302023077
:1004C80003195202031CD22AF001AA0106300800BF
:1004D800AA010430080027080319902A2D080319D7
:1004E8008D2A2E09D0002F09D100D00A0319D10A6C
:1004F80073085007D2007408513DD30000305302EE
:10050800023003195202031CD22AAD01A701073099
:100518000800A7010530080070080319B12A2A0845
:100528000319AE2A2B09D0002C09D100D00A0319CF
:10053800D10A73085007D2007408513DD300003027
:100548005302023003195202031CD22AF001AA01F5
:1005580006300800F001023008002D080319D22ADD
:1005680027080319CF2A2809D0002909D100D00A61
:100578000319D10A73085007D2007408513DD300FB
:1005880000305302023003195202031CD22AAD0173
:10059800A70107300800AD0103300800003008004B
:1005A80020006408302520004A084B04031D080079
:1005B800083049060319142B41222000D800580896
:1005C800C800083048020318492B093049020318AB
:1005D800492B4808D800D901D835D90D4908DA007F
:1005E800DB01DA0EDB0EF030DB055A080F39DB04CD
:1005F800F030DA053030DC008030DD005A085C0766
:10060800DE005B085D3DDF005E08580784005F0878
:10061800593D8500013F8A00003F0A0083314A2B7B
:10062800F8202000D8005808C600073046020318F2
:10063800492B043047020318492B4608D800D90132
:10064800D835D90D4708DA00DB015A08CA005B081B
:10065800CB000E30CC000030CD006024C03020002C
:10066800DC008030DD004A085C07DE004B085D3D99
:10067800DF005E08580784005F08593D8500013F88
:100688008A00003F0A0083314A2B47250A302000A0
:10069800CA000030CB006408E52508000B1C0800E0
:1006A8002700931D772B20003508FB003408FA003B
:1006B800B40A0319B50A7B08803AFC0080307C0232
:1006C800031D682B65307A02031C722B0230F70079
:1006D8000030F800200038081026752B2000380854
:1006E8001E2627009311131D8B2B20000C19832B1A
:1006F800F001F00A7408F2007308F100892BAD01CB
:10070800AD0A7408AF007308AE0027001311131E5A
:10071800080020000C1A972BAA01AA0A7408AC003A
:100728007308AB009D2BA701A70A7408A9007308DA
:10073800A80027001312080002262000CE004E0849
:10074800E4000A30CA000030CB006408E52586269C
:1007580002262000CE00CF014E08B8004F08B9008D
:1007680002262000CE00CF014E08BC004F08BD0075
:1007780002262000CE00CF014E08BA004F08BB0069
:10078800F4252000CE00CF014E08B6004F08B70070
:100798004725080020003F080319080041083025B4
:1007A80020004A084B04031D080040080319DF2BEA
:1007B800C001BE01E32BC001C00ABE01BE0A300A57
:1007C8000319310A0319F22BFF30B007FF30B13D8E
:1007D80030083104031DF22BBF01BE016108CB00B4
:1007E8006008CA004108E52508002000D300FF3052
:1007F800D200FF30D100FF30D000FF30CF007508A5
:10080800530203181A2C5308CE000130CE35FF3E90
:10081800031D0A2C4E35203E86008701403FCF003D
:10082800413FD000423FD100433FD2005208CD00A3
:100838005108CC005008CB004F08CA000800FC3013
:1008480021009905190887397038990099178C1271
:100858008C1023008C1022008C1021008C150C1099
:1008680023000C1022000C1421000C1623000C127B
:1008780021000C1523000C1121001714080020007A
:100888003A08D62500302000CD000030CC00EA30F0
:10089800CB006030CA003608B1242000C701C70A5F
:1008A800B526C8302000CA000030CB000230CC008A
:1008B8000030CD00192508002000CE01CF014A1CC8
:1008C800692C4C08CE074D08CF3D0130CC35CD0DF5
:1008D800890B6A2C0130CB36CA0C890B6F2C4A085D
:1008E8004B04031D632C4F08CB004E08CA000800B8
:1008F80020004208031908004408302520004A084F
:100908004B04031D0800430803198D2CC3018C16E2
:10091800902CC301C30A8C126308CB006208CA007A
:100928004408E525080020003608E5246430200046
:10093800CA000030CB000130CC000030CD001925B2
:1009480010302000CA002730CB003A08E5250230D5
:100958002000CE004E08C70008002000CF00750810
:100968004F02031808004F08CE000130CE35FF3E75
:10097800031DBA2C4E35203E860087014A08C03F29
:100988004B08C13F4C08C23F4D08C33F0800013027
:100998002000CE004E08C5070B304502031CE32C8F
:1009A8006430CA000030CB000130CC000030CD00EC
:1009B80019252000C5013A08D62506300800003060
:1009C80008002000CB0075084B02031808004B08EC
:1009D800CA000130CA35FF3E031DEE2C4A35203EC1
:1009E80086008701FF30C03FFF30C13FFF30C23F64
:1009F800FF30C33F08002100911C08002000911C13
:100A080008001C113E080319152D22000C0C013991
:100A1800F7000130F706F70D0C087706FD39770661
:100A28008C0020001C15911008002000BF01BF0A8F
:100A38004C0A03194D0A0319252D4C35B0004D0DEC
:100A4800282DFF30B000FF30B100BE014B08E10097
:100A58004A08E000C00108002000CF00FF30CD00A8
:100A6800FF30CE0076084F020318422D4F35A03EC6
:100A780086008701403FCD00413FCE004E08CB00A5
:100A88004D08CA000800D0302000CA000730CB004B
:100A98003C08E52522000C142000C901F001AD0135
:100AA800AA01A701C701C830CA000030CB009126AF
:100AB800080020003C08D62508302000CD004D084D
:100AC800C900A401A40A7408A6007308A500D030C0
:100AD800CA000730CB003A08E525080020003A088C
:100AE800D625B52600302000CD000030CC00EA30F5
:100AF800CB006030CA003608B1242000C701C70AFD
:100B0800080023249725A0237A26A925BD26B526E3
:100B1800C8302000CA000030CB000330CC000030C1
:100B2800CD0019250800F601F50120009913981346
:100B38001817981218127D3097000030960021007F
:100B480011140B17200018140800B8252000BE0146
:100B580002262000CD004D08C1006108CB006008C6
:100B6800CA004108E5250800FC3020009C051C0847
:100B7800873938389C0065309B00210091140B1789
:100B880020001C150800B8302000CA000B30CB002C
:100B98003C08E52522000C1004302000CD004D084B
:100BA800C90008002000CA0076084A020318080095
:100BB8004A35A03E86008701FF30C03FFF30C13F65
:100BC80008002000CC0076084C02031808004C35B9
:100BD800A03E860087014A08C03F4B08C13F080075
:100BE80075082000CC004C08CD000130CC004C0822
:100BF800F5074D08E52420004D0808007608200078
:100C0800CB004B08CC000130CB004B08F6074C0852
:100C1800D62520004C080800F90076087902031848
:100C280008007935A03E860087017708C03F78081C
:100C3800C13F0800F70076087702031808007735E7
:100C4800A03E86008701FF30C03FFF30C13F08004B
:100C5800D0302000CA000730CB003C08E52507301B
:100C68002000CD004D08C9000800D0302000CA007F
:100C78000730CB003C08E52503302000CD004D08A7
:100C8800C9000800D0302000CA000730CB003C085B
:100C9800E52505302000CD004D08C9000800D030FA
:100CA8002000CA000730CB003C08E52506302000AC
:100CB800CD004D08C9000800D0302000CA00073018
:100CC800CB003C08E52503302000CD004D08C900C5
:100CD8000800D0302000CA000730CB003C08E525CA
:100CE80002302000CD004D08C9000800022620006F
:100CF800CD004D08C4006308CB006208CA00440850
:100D0800E52508008B1727009215121511151216E4
:100D180011160B108B150B1708002000C201C20A10
:100D28008C124B08E3004A08E200C301C30A08001A
:100D380010302000CA002730CB003A08E525B92634
:100D48000800640080010131890BA62E0034852536
:100D5800D4227C24CE23C026AC2EE8340334E834D5
:100D680003342000C2018C1608002000C2018C1236
:100D780008000B178B17080064000800080008001B
:020000040001F9
:04000E00BCCFFFDD87
:00000001FF
