:020000000F28C7
:100008007E14803120007F08F30020207308200030
:10001800FF007E10090010280521E8000621E900EC
:10002800F601F701F80120308400003085004230E5
:10003800F8207E102000FE282100111C0800200056
:10004800111C080018106008610403192F280130DA
:10005800E0020030E13BF2017808720203185728E9
:100068007235203E860087011600010403195228C4
:100078007235203E860087011600FF3AF000160010
:10008800FF3AF004031952287235203E8600870192
:100098000130810241310030813B7F310130F00075
:1000A8007008F20730287D30200097000030960055
:1000B8001814111008007708031908007908792026
:1000C800200062086304031D0800760803196F28DE
:1000D800F6018C167228F601F60A8C126908F500EA
:1000E8006808F4007908A12008002000E700FF3024
:1000F800E500FF30E6007808670203188B286735AB
:10010800203E86008701403FE500413FE600660843
:10011800E3006508E2000800F8012000991398132D
:100128001817981218127D30970000309600210099
:1001380011140B172000181408002000E20078089A
:100148006202031808006235203E860087017408A1
:10015800C03F7508C13F08007808F5007508200001
:10016800E2000130F5007508F8076208BE2020009B
:1001780062080800F400780874020318080074354F
:10018800203E86008701FF30C03FFF30C13F080096
:10019800B0202000E3006308F9006908F50068084A
:1001A800F4007908A1200800FC30210099051908FD
:1001B80087397038990099178C1217140800F701BD
:1001C800F70A20008C127508E9007408E800F601A7
:1001D800F60A0800D8209020CC200221E830F4004C
:1001E8000330F500E3200800640080010131890B29
:1001F800F9280034EE205F200721FF280B178B1702
:0A0208000800E83403346400080025
:020000040001F9
:04000E00BCCFFFDD87
:00000001FF
