:020000001128C5
:100008007E14803120007F08F600D422F7201824BF
:1000180076082000FF007E1009001228B325DB00B7
:10002800B425DC00B525DD00B625DE00F701F801B2
:10003800F901FA01FB01FC01203084000030850041
:100048002930A725A0308400003085001430A7256A
:100058007E102000AD2DD03405346D340534D034F5
:100068000534D0340534D0340534D0340534D03494
:100078000534D0340534D03405348F340434D034C6
:100088000534D0340534D0340534D0340534D03474
:100098000534D0340534D0340534B53404346034F0
:1000A8000534D0340534D0340534D0340534D03454
:1000B8000534D0340534D0340534B5340434D03460
:1000C800053453340534D0340534D0340534D034B1
:1000D8000534D0340534D0340534B5340434D03440
:1000E8000534D034053446340534D0340534D0349E
:1000F8000534D0340534D0340534B5340434D03420
:100108000534D0340534D034053439340534D0348A
:100118000534D0340534D0340534B5340434D034FF
:100128000534D0340534D0340534D03405342C3477
:100138000534D0340534D0340534B5340434D034DF
:100148000534D0340534D0340534D0340534D034B3
:10015800053432340434D0340534B5340434D0345E
:100168000534D0340534D0340534D0340534D03493
:100178000534D0340534CF340534CE3405349C34BA
:100188000534CD340534CD340534CF340534CD347D
:100198000534CF340534CC340534CB340534CA3473
:1001A8000534CB340534CF340534CB340534CF345F
:1001B8000534C9340534C8340534C8340534C73463
:1001C8000534CF340534C8340534CF340534C63447
:1001D8000534C8340534C8340534CF340534C5343F
:1001E8000534C43405342100111C08002000111CFA
:1001F8000800181035083604031906290130B5021D
:100208000030B63BF5017C08750203182E297535B8
:10021800A03E8600870116000104031929297535B7
:10022800A03E860087011600FF3AF0001600FF3A4C
:10023800F004031929297535A03E8600870101308D
:10024800810241310030813B7F310130F00070087C
:10025800F5070729F5017B08750203188129750838
:10026800F0000130F035FF3E031D36297035203E81
:1002780086008701403FF100413FF200423FF30012
:10028800433FF400740873047204710403197C2951
:100298007508F0000130F035FF3E031D4F29703519
:1002A800203E860087011600FF3AF1001600FF3A4B
:1002B800F1041600FF3AF1041600FF3AF10403199D
:1002C8007C297508F0000130F035FF3E031D6829D0
:1002D8007035203E860087010130810241310030AF
:1002E800813B41310030813B41310030813B7D31E0
:1002F8000130F0007008F5072F290130F9070030A8
:10030800FA3D7D3020009700003096001814111037
:10031800080020003B087824200049084A04031DEF
:1003280099293B08E4240130080020002A08031911
:10033800BB2930080319B8293109CF003209D00088
:10034800CF0A0319D00A79084F07D1007A08503D1F
:10035800D20000305202023003195102031C1E2A37
:10036800B001AA0106300800AA01043008002708D5
:100378000319DC292D080319D9292E09CF002F09C3
:10038800D000CF0A0319D00A79084F07D1007A089C
:10039800503DD20000305202023003195102031CB2
:1003A8001E2AAD01A70107300800A7010530080083
:1003B80030080319FD292A080319FA292B09CF0047
:1003C8002C09D000CF0A0319D00A79084F07D100A9
:1003D8007A08503DD200003052020230031951020F
:1003E800031C1E2AB001AA0106300800B001023021
:1003F80008002D0803191E2A270803191B2A280993
:10040800CF002909D000CF0A0319D00A79084F076D
:10041800D1007A08503DD200003052020230031950
:100428005102031C1E2AAD01A70107300800AD01C7
:10043800033008000030080020005F0878242000FE
:1004480049084A04031D08008D212000D3005308E1
:10045800C7000830470203185C2A0930480203180D
:100468005C2A4708D300D401D335D40D4808D500F9
:10047800D601D50ED60EF030D60555080F39D6045C
:10048800F030D5052F30D7008030D80055085707F1
:10049800D9005608583DDA005908530784005A080D
:1004A800543D8500013F8A00003F0A0082315D2AE1
:1004B800B5249B222000D3005308C500073045020D
:1004C8000318922A043046020318922A4508D300DA
:1004D800D401D335D40D4608D500D6015508C90036
:1004E8005608CA000E30CB000030CC00AD23BF3018
:1004F8002000D7008030D80049085707D9004A089B
:10050800583DDA005908530784005A08543D8500BD
:10051800013F8A00003F0A008231932AB5240A303D
:100528002000C9000030CA005F08F324080020003A
:1005380039087824200049084A04031DA72A3908E5
:10054800E4240130080077087824200049084A0488
:10055800031DBE2A7708E424200044080319B82A9A
:10056800BB252000C401BC2AB7252000C401C40A49
:10057800033008003708632320004C084B044A0462
:100588004904031DCB2A3708FE2301300800200048
:1005980024080319D22AA4010230080000300800F8
:1005A8000B1C08002700931DE12A0230F0000030E0
:1005B800F10077081E2527009311131DF52A200046
:1005C8000C1DED2AB001B00A7A08B2007908B10012
:1005D800F32AAD01AD0A7A08AF007908AE0027000A
:1005E8001311131E080020000C1E012BAA01AA0AD1
:1005F8007A08AC007908AB00072BA701A70A7A088C
:10060800A9007908A8002700131208001025200067
:10061800CD004D08DF000A30C9000030CA005F086D
:10062800F324912510252000CD00CE014D08F700B8
:100638004E08F80010252000CD00CE014D08BB0063
:100648004E08BC0010252000CD00CE014D08B90091
:100658004E08BA0002252000CD00CE014D08B70093
:100668004E08B800B524080020003E080319080009
:1006780040087824200049084A04031D08003F0860
:100688000319492BBF01BD014D2BBF01BF0ABD0195
:10069800BD0A330A0319340A03195C2BFF30B30768
:1006A800FF30B43D33083404031D5C2BBE01BD018B
:1006B8005C08CA005B08C9004008F3240800200051
:1006C800D200FF30D100FF30D000FF30CF00FF3024
:1006D800CE007B0852020318842B5208CD0001304B
:1006E800CD35FF3E031D742B4D35203E8600870116
:1006F800403FCE00413FCF00423FD000433FD100B2
:100708005108CC005008CB004F08CA004E08C90059
:100718000800FC30210099051908873970389900BC
:1007280099178C128C1023008C1022008C10210039
:100738008C150C1023000C1022000C1421000C1630
:1007480023000C1221000C1523000C112100171492
:1007580008002000CD01CE01491CB62B4B08CD075F
:100768004C08CE3D0130CB35CC0D890BB72B013071
:10077800CA36C90C890BBC2B49084A04031DB02B87
:100788004E08CA004D08C900080020004108031996
:10079800080043087824200049084A04031D08007B
:1007A80042080319DA2BC2018C16DD2BC201C20ADA
:1007B8008C125E08CA005D08C9004308F3240800CB
:1007C8002000CE007B084E02031808004E08CD001A
:1007D8000130CD35FF3E031DED2B4D35203E860003
:1007E80087014908C03F4A08C13F4B08C23F4C082F
:1007F800C33F08002000CA007B084A02031808000B
:100808004A08C9000130C935FF3E031D072C493588
:10081800203E86008701FF30C03FFF30C13FFF30D8
:10082800C23FFF30C33F08002100911C0800200090
:10083800911C08001C113D0803192E2C22000C0CD9
:100848000139F0000130F006F00D0C087006FD3992
:1008580070068C0020001C159110080020003B0831
:10086800E42408302000CA004A08C800A401A40AE9
:100878007A08A6007908A500F430C9000130CA003A
:100888000530CB000030CC00612408008D23A32460
:100898000A237A25C624BF25E8302000C900033082
:1008A800CA008625C8302000C9000030CA000330BD
:1008B800CB000030CC00612408002000BE01BE0A35
:1008C8004B0A03194C0A03196D2C4B35B3004C0D18
:1008D800702CFF30B300FF30B400BD014A08DC00C3
:1008E8004908DB00BF0108002000CE00FF30CC0023
:1008F800FF30CD007C084E0203188A2C4E35A03EEE
:1009080086008701403FCC00413FCD004D08CA001A
:100918004C08C900080020003B08E42400302000EF
:10092800CC000930CB002730CA00C030C9003708D6
:10093800E42308302000CA004A08C8000800FC0167
:10094800FB012000991398131817981218127D307C
:10095800970000309600210011140B17200018147E
:100968000800D0302000C9000730CA003B08F32433
:1009780022000C142000C801B001AD01AA01A70192
:10098800C6010800D5242000BD0110252000CC0098
:100998004C08C0005C08CA005B08C9004008F32482
:1009A8000800FC3020009C051C08873938389C005A
:1009B80065309B00210091140B1720001C150800BE
:1009C8002000C9007C084902031808004935A03EE8
:1009D80086008701FF30C03FFF30C13F080020007C
:1009E800CB007C084B02031808004B35A03E86005C
:1009F80087014908C03F4A08C13F08007B0820001A
:100A0800CB004B08CC000130CB004B08FB074C084F
:100A1800FE2320004C0808007C082000CA004A0871
:100A2800CB000130CA004A08FC074B08E424200028
:100A38004B080800F2007C0872020318080072359F
:100A4800A03E860087017008C03F7108C13F0800BA
:100A5800D0302000C9000730CA003B08F324073013
:100A68002000CC004C08C8000800D0302000C90085
:100A78000730CA003B08F32406302000CC004C089D
:100A8800C8000800D0302000C9000730CA003B0861
:100A9800F32405302000CC004C08C8000800D030F2
:100AA8002000C9000730CA003B08F32404302000A6
:100AB800CC004C08C8000800D0302000C90007301E
:100AC800CA003B08F32403302000CC004C08C800BF
:100AD8000800D0302000C9000730CA003B08F324C2
:100AE80022000C102000C801C80A080010252000A8
:100AF800CC004C08C3005E08CA005D08C900430862
:100B0800F32408002000C101C10A8C124A08DE0043
:100B18004908DD00C201C20A08008B172700921598
:100B280012151115121611160B108B150B1708003C
:100B3800C8302000C9000030CA000530CB000030A2
:100B4800CC0061240800640080010131890BA82DC4
:100B580000344A242022C9233823C225AE2DE83484
:100B68000334E83403342000C1018C12080020004B
:100B7800C1018C1608000B178B17080064000800C9
:100B8800080008000800080008000800080008001D
:0A0B9800080008000800080008002B
:020000040001F9
:04000E00BCCFFFDD87
:00000001FF
