:020000001128C5
:100008007E14803120007F08FD006E228F2152234C
:100018007D082000FF007E1009001228CE24DA0097
:10002800CF24DB00D024DC00D124DD00F001F10175
:10003800F201F301F401F501F601203084000030EB
:1000480085002830C224A030840000308500143098
:10005800C2247E102000C82CDF3404340634043453
:10006800DF340434DF340434DF340434DF3404345C
:10007800DF340434DF340434DF3404349E3404348D
:10008800DF340434DF340434DF340434DF3404343C
:10009800DF340434DF340434DF340434D634033436
:1000A80091340434DF340434DF340434DF3404346A
:1000B800DF340434DF340434DF340434D634033416
:1000C800DF34043484340434DF340434DF34043457
:1000D800DF340434DF340434DF340434D6340334F6
:1000E800DF340434DF34043477340434DF34043444
:1000F800DF340434DF340434DF340434D6340334D6
:10010800DF340434DF340434DF3404346A34043430
:10011800DF340434DF340434DF340434D6340334B5
:10012800DF340434DF340434DF340434DF3404349B
:100138005D340434DF340434DF340434D634033417
:10014800DF340434DF340434DF340434DF3404347B
:10015800DF3404346C340334DF340434DF340434DF
:10016800DF340434DF340434DF340434DF3404345B
:10017800DF340434DF340434003400340034003411
:1001880000340034003400340034003400340034C7
:1001980000340034003400340034003400340034B7
:1001A80000340034003400340034003400340034A7
:1001B8000034003400340034003400340034003497
:1001C8000034003400340034003400340034003487
:1001D8000034003400340034003400340034003477
:1001E800003400340034003420003B089B232000F6
:1001F80048084904031D04293B0815240130080058
:1002080020002A080319272930080319232931094E
:10021800CE003209CF00CE0A0319CF0A72084E0762
:10022800D00073084F3DD10000305102023003194D
:100238005002031C8D29B001AA0106300800AA014A
:10024800D224043008002000270803194A292D0861
:10025800031946292E09CE002F09CF00CE0A03190B
:10026800CF0A72084E07D00073084F3DD100003006
:100278005102023003195002031C8D29AD01A70158
:1002880007300800A701D6240530080020003008F0
:1002980003196C292A08031969292B09CE002C098E
:1002A800CF00CE0A0319CF0A72084E07D000730890
:1002B8004F3DD10000305102023003195002031C97
:1002C8008D29B001AA0106300800B00102300800EB
:1002D8002D0803198D29270803198A292809CE0012
:1002E8002909CF00CE0A0319CF0A72084E07D00099
:1002F80073084F3DD10000305102023003195002FB
:10030800031C8D29AD01A70107300800AD0103309A
:100318000800003008002100111C08002000111CF2
:10032800080018103508360403199E290130B50253
:100338000030B63BFC0175087C020318C6297C35E1
:10034800A03E86008701160001040319C1297C35E7
:10035800A03E860087011600FF3AF7001600FF3A14
:10036800F7040319C1297C35A03E860087010130B6
:10037800810241310030813B7F310130F70077083D
:10038800FC079F29FC0174087C020318192A7C08C1
:10039800F7000130F735FF3E031DCE297735203EA3
:1003A80086008701403FF800413FF900423FFA00CC
:1003B800433FFB007B087A04790478040319142A64
:1003C8007C08F7000130F735FF3E031DE729773534
:1003D800203E860087011600FF3AF8001600FF3A13
:1003E800F8041600FF3AF8041600FF3AF804031957
:1003F800142A7C08F7000130F735FF3E031D002A58
:100408007735203E86008701013081024131003076
:10041800813B41310030813B41310030813B7D31AE
:100428000130F7007708FC07C7290130F2070030D0
:10043800F33D7D302000970000309600181411100D
:10044800080020005E089B23200048084904031D7B
:100458000800083047060319662AF8202000D20051
:100468005208C600083046020318652A09304702B8
:100478000318652A4608D200D301D235D30D4708A0
:10048800D400D501D40ED50EF030D50554080F3957
:10049800D504F030D4053030D6008030D700540869
:1004A8005607D8005508573DD90058085207840008
:1004B8005908533D8500013F8A00003F0A008231F8
:1004C800662AD6230A302000C8000030C9005E081A
:1004D800242408000B1C08002700931D7B2A0230E7
:1004E800F7000030F80070084F2427009311131DFF
:1004F8008F2A20000C19872AB001B00A7308B200AD
:100508007208B1008D2AAD01AD0A7308AF007208F8
:10051800AE0027001311131E080020000C1A9B2A96
:10052800AA01AA0A7308AC007208AB00A12AA701A5
:10053800A70A7308A9007208A80027001312080068
:1005480041242000CC004C08DE000A30C8000030EE
:10055800C9005E082424B72441242000CC00CD0122
:100568004C08F0004D08F10041242000CC00CD01DA
:100578004C08BB004D08BC0041242000CC00CD0134
:100588004C08B9004D08BA0033242000CC00CD0136
:100598004C08B7004D08B800D623080020003E08D4
:1005A8000319080040089B23200048084904031D3C
:1005B80008003F080319E32ABF01BD01E72ABF016C
:1005C800BF0ABD01BD0A330A0319340A0319F62A02
:1005D800FF30B307FF30B43D33083404031DF62A57
:1005E800BE01BD015B08C9005A08C80040082424A0
:1005F8000800FC30210099051908873970389900DE
:1006080099178C128C1023008C1022008C1021005A
:100618008C150C1023000C1022000C1421000C1651
:1006280023000C1221000C1523000C1121001714B3
:100638000800200041080319080043089B232000F4
:1006480048084904031D0800420803192E2BC2015B
:100658008C16312BC201C20A8C125D08C9005C08D5
:10066800C8004308242408002000C900740849026F
:10067800031808004908C8000130C835FF3E031DAB
:10068800412B4835203E86008701FF30C03FFF30B0
:10069800C13FFF30C23FFF30C33F08002100911C1B
:1006A80008002000911C08001C113D080319682B44
:1006B80022000C0C0139F7000130F706F70D0C0881
:1006C8007706FD3977068C0020001C15911008006C
:1006D80020003B08152408302000C9004908C7003D
:1006E800A401A40A7308A6007208A500F430C80083
:1006F8000130C9000530CA000030CB00842308004F
:100708002000BE01BE0A4A0A03194B0A0319902B9E
:100718004A35B3004B0D932BFF30B300FF30B400C4
:10072800BD014908DB004808DA00BF0108002000C5
:10073800CD00FF30CB00FF30CC0075084D02031808
:10074800AD2B4D35A03E86008701403FCB00413F91
:10075800CC004C08C9004B08C8000800FD22C4237F
:10076800A422AB24E823DA24D624C8302000C80009
:100778000030C9000330CA000030CB0084230800D1
:10078800F501F401200099139813181798121812FC
:100798007D30970000309600210011140B172000BF
:1007A80018140800D0302000C8000730C9003B08E2
:1007B800242422000C142000C701B001AD01AA01B5
:1007C800A701C501D6240800F7232000BD01412454
:1007D8002000CB004B08C0005B08C9005A08C800BD
:1007E800400824240800FC3020009C051C08873998
:1007F80038389C0065309B00210091140B172000AD
:100808001C150800B8302000C8000B30C9003B0890
:10081800242422000C1004302000CB004B08C70011
:1008280008002000C8007508480203180800483569
:10083800A03E86008701FF30C03FFF30C13F08005F
:100848002000CA0075084A02031808004A35A03E6D
:10085800860087014808C03F4908C13F080074085E
:100868002000CA004A08CB000130CA004A08F40731
:100878004B08382320004B08080075082000C900E1
:100888004908CA000130C9004908F5074A08152473
:1008980020004A080800F9007508790203180800C2
:1008A8007935A03E860087017708C03F7808C13FA8
:1008B8000800D0302000C8000730C9003B082424B5
:1008C80007302000CB004B08C7000800D0302000BC
:1008D800C8000730C9003B08242403302000CB009F
:1008E8004B08C7000800D0302000C8000730C900F6
:1008F8003B08242405302000CB004B08C700080023
:10090800D0302000C8000730C9003B082424063036
:100918002000CB004B08C7000800D0302000C800DA
:100928000730C9003B08242403302000CB004B08C3
:10093800C7000800D0302000C8000730C9003B08B5
:10094800242402302000CB004B08C70008004124B3
:100958002000CB004B08C3005D08C9005C08C80034
:100968004308242408008B17270092151215111527
:10097800121611160B108B150B1708006400800156
:100988000131890BC32C0034B22325221D23D22226
:10099800DD24C92CE8340334E83403342000C101D1
:1009A8008C1208002000C1018C1608000B178B1749
:0809B8000800640008000800BB
:020000040001F9
:04000E00BCCFFFDD87
:00000001FF
